{
  "_format": "hh-sol-artifact-1",
  "contractName": "Test",
  "sourceName": "contracts/testVSCode.sol",
  "abi": [
    {
      "inputs": [
        {
          "internalType": "uint256",
          "name": "a",
          "type": "uint256"
        }
      ],
      "name": "demo",
      "outputs": [],
      "stateMutability": "pure",
      "type": "function"
    }
  ],
  "bytecode": "0x6080604052348015600f57600080fd5b506103168061001f6000396000f3fe608060405234801561001057600080fd5b506004361061002b5760003560e01c8063071bd07914610030575b600080fd5b61004a600480360381019061004591906101b5565b61004c565b005b61008b6040518060400160405280600b81526020017f56616c7565206f6620613a0000000000000000000000000000000000000000008152508261008e565b50565b61012682826040516024016100a4929190610281565b6040516020818303038152906040527fb60e72cc000000000000000000000000000000000000000000000000000000007bffffffffffffffffffffffffffffffffffffffffffffffffffffffff19166020820180517bffffffffffffffffffffffffffffffffffffffffffffffffffffffff838183161783525050505061012a565b5050565b61014181610139610144610165565b63ffffffff16565b50565b60006a636f6e736f6c652e6c6f679050600080835160208501845afa505050565b610170819050919050565b6101786102b1565b565b600080fd5b6000819050919050565b6101928161017f565b811461019d57600080fd5b50565b6000813590506101af81610189565b92915050565b6000602082840312156101cb576101ca61017a565b5b60006101d9848285016101a0565b91505092915050565b600081519050919050565b600082825260208201905092915050565b60005b8381101561021c578082015181840152602081019050610201565b60008484015250505050565b6000601f19601f8301169050919050565b6000610244826101e2565b61024e81856101ed565b935061025e8185602086016101fe565b61026781610228565b840191505092915050565b61027b8161017f565b82525050565b6000604082019050818103600083015261029b8185610239565b90506102aa6020830184610272565b9392505050565b7f4e487b7100000000000000000000000000000000000000000000000000000000600052605160045260246000fdfea2646970667358221220f5d29cc85bcdbb1a949cb57367719281331747e81986a7e92a93360cbb160bf764736f6c634300081c0033",
  "linkReferences": {},
  "deployedLinkReferences": {}
}