{
  "_format": "hh-sol-artifact-1",
  "contractName": "Test",
  "sourceName": "contracts/test.sol",
  "abi": [
    {
      "inputs": [
        {
          "internalType": "uint256",
          "name": "_val",
          "type": "uint256"
        }
      ],
      "name": "store",
      "outputs": [],
      "stateMutability": "nonpayable",
      "type": "function"
    },
    {
      "inputs": [],
      "name": "stored",
      "outputs": [
        {
          "internalType": "uint256",
          "name": "",
          "type": "uint256"
        }
      ],
      "stateMutability": "view",
      "type": "function"
    }
  ],
  "bytecode": "0x6080604052348015600f57600080fd5b506104168061001f6000396000f3fe608060405234801561001057600080fd5b50600436106100365760003560e01c80636057361d1461003b578063e582dd3114610057575b600080fd5b6100556004803603810190610050919061022e565b610075565b005b61005f610101565b60405161006c919061026a565b60405180910390f35b6100b46040518060400160405280600e81526020017f53746f72696e672076616c75653a00000000000000000000000000000000000081525082610107565b606481106100f7576040517f08c379a00000000000000000000000000000000000000000000000000000000081526004016100ee906102e2565b60405180910390fd5b8060008190555050565b60005481565b61019f828260405160240161011d929190610381565b6040516020818303038152906040527fb60e72cc000000000000000000000000000000000000000000000000000000007bffffffffffffffffffffffffffffffffffffffffffffffffffffffff19166020820180517bffffffffffffffffffffffffffffffffffffffffffffffffffffffff83818316178352505050506101a3565b5050565b6101ba816101b26101bd6101de565b63ffffffff16565b50565b60006a636f6e736f6c652e6c6f679050600080835160208501845afa505050565b6101e9819050919050565b6101f16103b1565b565b600080fd5b6000819050919050565b61020b816101f8565b811461021657600080fd5b50565b60008135905061022881610202565b92915050565b600060208284031215610244576102436101f3565b5b600061025284828501610219565b91505092915050565b610264816101f8565b82525050565b600060208201905061027f600083018461025b565b92915050565b600082825260208201905092915050565b7f56616c756520746f6f2068696768000000000000000000000000000000000000600082015250565b60006102cc600e83610285565b91506102d782610296565b602082019050919050565b600060208201905081810360008301526102fb816102bf565b9050919050565b600081519050919050565b60005b8381101561032b578082015181840152602081019050610310565b60008484015250505050565b6000601f19601f8301169050919050565b600061035382610302565b61035d8185610285565b935061036d81856020860161030d565b61037681610337565b840191505092915050565b6000604082019050818103600083015261039b8185610348565b90506103aa602083018461025b565b9392505050565b7f4e487b7100000000000000000000000000000000000000000000000000000000600052605160045260246000fdfea26469706673582212208a335a4b6af9d96720ad4790dfc2d3aff9767afdcee30c1477616fb7917d909864736f6c634300081c0033",
  "linkReferences": {},
  "deployedLinkReferences": {}
}